S018000053445F4D4D435F4558414D504C4532312E737265636B
S214400000B0294020A11F40009D1F40009D1F40007A
S2144000109D1F40009D1F40009D1F400000000000A7
S2144000200000000000000000000000009D1F40008F
S2144000309D1F4000000000009D1F40009D1F400087
S2144000409D1F40009D1F40009D1F40009D1F40007B
S2144000509D1F40009D1F40009D1F40009D1F40006B
S2144000609D1F4000000000006D1B4000811B4000AB
S214400070951B40009D1F40009D1F40009D1F400057
S214400080A91B4000BD1B40009D1F40009D1F400017
S2144000909D1F40009D1F40009D1F40009D1F40002B
S2144000A09D1F40009D1F40009D1F40009D1F40001B
S2144000B09D1F40009D1F40009D1F40009D1F40000B
S2144000C09D1F40009D1F40009D1F40009D1F4000FB
S2144000D0000000009D1F4000000000009D1F4000E3
S2144000E09D1F40009D1F40009D1F40009D1F4000DB
S2144000F09D1F40009D1F40009D1F40009D1F4000CB
S2144001009D1F40009D1F40009D1F40009D1F4000BA
S2144001109D1F40000000000000000000000000009E
S2144001209D1F40009D1F40009D1F40009D1F40009A
S2144001309D1F4000000000009D1F40009D1F400086
S21440014010B5054C237833B9044B13B10448AFF3CC
S21440015000800123237010BD9C0840200000000052
S2144001600C794000084B10B51BB108490848AFF35E
S21440017000800848036803B910BD074B002BFBD02E
S214400180BDE81040184700BF00000000A00840200F
S2144001900C7940000C7940000000000010B5074B79
S2144001A0196891F82230003318BF01234A7C096849
S2144001B003480078034CA04710BD00BFBC08402051
S2144001C0C2084020FD15400010B5002854D1334BDE
S2144001D09A68334B03EB52135B02D96B02F01F0253
S2144001E0012303FA02F20A420ED02C4B9B7B012BD2
S2144001F005D12C4B1B7813B100222B4B1A600422DE
S214400200264B9A73022010BD244B9B7B042B15D1A2
S2144002100122224B9A73244B1B683BB9214B1A7020
S214400220214B224959601A60022010BD00221D4B06
S2144002301A701F481F4B9847022010BD012B0BD148
S214400240184B1B78F3B1184B1B6813F4803F15D03E
S2144002500022154B1A6015E0032B11D00022164BD6
S2144002601A700E4C154B1C60154B9847A07B022805
S21440027014BF0020012010BD042010BD022010BD78
S214400280032010BD054B02229A730E4A1A600122C3
S2144002905A74002283F82220E0E700BF0C0040207A
S2144002A007072000BA08402010E000E060343C0217
S2144002B06BAF030301004020C2084020BC0840202A
S2144002C09D014000801A060038B5049C520242EA5E
S2144002D0C36343EA017141EAC0702178014341F2A9
S2144002E03430044B9847054610B1034B984720706E
S2144002F0284638BDC9164000ED16400010B5084BDC
S2144003001B689989090441F60930064B984704460C
S21440031020B1034B18681230034B9847204610BD57
S214400320BC084020C9164000F516400008B5034BEF
S2144003301B7813B90020024B984708BDC2084020DE
S214400340A116400008B51020054B98470422054BDF
S2144003509A73FF22044B1A70044B984708BD00BF9F
S214400360F91C40000C004020C2084020C115400047
S2144003702DE9F04194B0A84B9847012805D0044693
S214400380A64B9847204600F014BC14AD082305F849
S214400390453DA34B1B680126DE7300241C749C81DC
S2144003A0A04B9847009523460622214630469E4D50
S2144003B0A84721464FF480409C4B9847002800F0C1
S2144003C0AB834FF4D57145F20850984B98470028B8
S2144003D000F0AA83964B9847B0F1FF3F00F0A78302
S2144003E0C0F30B00B0F5D57F40F09683B046A0E34F
S2144003F08F4B984710F0E04F00F0A38341F28934CA
S21440040044F20556894D8A4F00F4FC113046A84701
S214400410002800F08183B847002802DB013CF3D176
S2144004207AE310F0006F04D07D4B1B680522DA7328
S2144004308EE37B4B1B680422DA7361E1414641F24E
S2144004403710A847002800F09083314644F22950E0
S214400450A847002800F08983B84700280ADA10F039
S214400460804F00F08E836E4B1A68D37B43F00803B0
S214400470D37386E3013CE1D177E341F269046D4EE4
S2144004806A4D6B4F314644F20150A847002800F0B1
S2144004904383B84700280CDA00F0C040B0F1804FE4
S2144004A040F077835E4B1A68D37B43F00803D373E0
S2144004B06FE3013CE6D12FE3594B1B6801229A813A
S2144004C04FF4803141F20310584B9847002800F013
S2144004D02383594B9847002800F01E83504B1968D9
S2144004E08B7CC3F38303013B032B03D8DFE803F085
S2144004F005080B0E12230B740AE014230B7407E056
S21440050022230B7404E030230B7401E040230B7469
S2144005104B7DC3F3C30003F00703484A52F8232039
S2144005204FF47A7303FB02F3454A52F8202003FB4C
S21440053002F30B60887E4B7E0A7E920242EA830379
S21440054043EAA013C3F30B0340F6FF7293420FD067
S214400550087FCA7E520042EAE012013302F00702E8
S21440056002329340CA7D02F00F0293409B0A4B60D2
S2144005708989090443F207102C4B9847002800F05D
S214400580CB82274B1B681B7C3F2B40F29D80002173
S214400590009101234FF400722A482B4CA0470028B4
S2144005A000F0BA820024294D03A8A847002800F08E
S2144005B0B3820134A4B2322CF6D1039B03F002037B
S2144005C0DDB2174B1A68917E537E127E920242EA43
S2144005D0830343EAA113C3F30B0340F6FF7293422F
S2144005E00ED11A4E04A8B047002800F09582013478
S2144005F0A4B2352CF6D90A4B1A68049B5B085360A4
S214400600124E06E004A8B047002800F08582013468
S214400610A4B27F2CF6D9C4E2C90140002D034000A5
S214400620BC084020A5164000C9024000C91640003C
S214400630ED16400000801F40FD024000EC70400078
S214400640087140000811080025174000ED174000CB
S214400650A44B1878A44B98470446042805D0A349D1
S214400660A34B082808BF194600E0A24943F20610EB
S214400670A14B9847002800F04F82A04B984710F0B7
S214400680800F40F049829E4B1B685C749D4B984798
S2144006909D4B984705B3F8B19C4943F20610964BDC
S2144006A09847002800F03882944B984710F0800F07
S2144006B040F03282924B1B68012283F82220944AF3
S2144006C01A60904B984707E08E4B984704E03946AF
S2144006D03046A84738B117E20A244FF4007741F273
S2144006E01016854DF3E7013C14F0FF04EFD113E2FA
S2144006F0002145F60230804B9847002800F00C82D7
S214400700002145F203107C4B9847002800F00482F5
S2144007107B4C2568794B9847000CA8812368DB7B87
S21440072013F0010F41D07B4B9847002800F0F4812E
S21440073023685A7DC2F3C30002F00702764951F897
S21440074022104FF47A7202FB01F2744951F82010DD
S21440075002FB01F21A609A7C92090CD0DA7E987EEF
S214400760597E090441EA00210A43C2F315020132C8
S21440077052025A6019E0987E5A7E197E890241EAF2
S214400780820242EAA012187FD97E490041EAE0116F
S214400790C2F30B02013201F0070102318A40D97DD3
S2144007A001F00F018A40920A5A60554B1B6899899E
S2144007B0090443F20710504B9847002800F0AC81DC
S2144007C04F4B1B68DA7B12F0010F40D09989090421
S2144007D041F23710484B9847002800F09D8101238E
S2144007E00093082200214E484E4CA047002800F0B7
S2144007F09381012104A84C4B9847002800F08C8137
S2144008004A4B9847002800F087819DF8103003F047
S2144008100F03012B08D013B1022B0AD013E0384B3C
S2144008201B6810221A7412E0354B1B681A221A7481
S2144008300DE09DF81230DB09314B1B6814BF3022A7
S21440084020221A7403E02E4B1B6810221A742C4B7D
S2144008501B68DB7B13F0040F00F09380092400260E
S214400860334DA4F1090303AA1344009333462246AA
S21440087031463046A84701340D2CF2D19DF80D2064
S2144008809DF80C3003EB02239DF80E8003EB0843E3
S2144008909DF80F8003EB08684546254F0024264602
S2144008A004AB2344009333462A1931463046B847B2
S2144008B00134032CF4D19DF81030FF2B00F02C812E
S2144008C0222B02D19DF81230A3B39DF81130002B95
S2144008D000F0228102331D4408F580739D42DDD925
S2144008E01AE100BFC2084020ED1540000000B701E5
S2144008F00002B7010001B701C9164000ED164000DE
S214400900BC0840209D014000F91540000001B90395
S21440091000751903FD024000EC704000AC704000CA
S2144009203311080025174000611840004119400067
S214400930C902400004AC05F1060800279E4E00940C
S2144009403B462A4639463846B04701350134454588
S214400950F5D19DF81530322B28BF3223974A1268BE
S214400960C3F3C30003F00703954951F823104FF42F
S2144009707A7303FB01F3934951F8201003FB01F30C
S2144009801360914B1878914B9847032842D98B4B6C
S2144009901B68DB7B13F0040F1FD004AB00930023CF
S2144009A0082219461846844CA047002800F0B48018
S2144009B09DF91030002B10DA14AB022203F8402DBC
S2144009C000930123072200211846A047002800F084
S2144009D0A3807A4B1B6804225A74784B1B68DA7BD8
S2144009E012F0010F14D09989090441F23710784B60
S2144009F09847002800F09080022141F20610744B80
S214400A009847002800F088806C4B1B6804225A7474
S214400A10704B9847704B9847002868D0674B1B68C8
S214400A20DB7B13F0040F22D004AB00930023132289
S214400A3019461846604CA04700286DD09DF81030E7
S214400A4013F0010F13D014AB022203F8402D00938D
S214400A500123132200211846A04700285CD0574B9C
S214400A601B68012283F822201A6852001A60534BF2
S214400A701B68DA7B12F0010F37D01B7C102B34D961
S214400A8040242246002104A8544B98470123009353
S214400A90224653495348544CA04700283CD0012195
S214400AA004A8524B9847002836D0514B9847002808
S214400AB032D0504B984710F0800F2DD19DF8203003
S214400AC003F00F030F2B10D09DF82D309DF82C20EF
S214400AD053EA022320D1484B9847384B1B680122E3
S214400AE083F822201A6852001A603A4B9847334BD4
S214400AF01B68DB7B13F0010F06D04FF4007141F208
S214400B001010334B984738B12C4B1B6800229A7311
S214400B103A4B984701204CE0284B1B6803249C73B3
S214400B20364B9847204644E04FF0000801E04FF02F
S214400B300008002144F20550254B984700287FF4D2
S214400B4057AC1E4B1B68DB7B13F0010F3FF4D8AD50
S214400B50B8F1000F2A4E08BF4FF4FC1640F6350495
S214400B604FF000081A4D234F68E4144B1B680222CE
S214400B70DA7300214FF48040154B98470028CBD0BD
S214400B807BE40E4B1B68DB7B13F0010F7FF4B0ADAC
S214400B90B6E5002145F602300D4B98470028BBD0FD
S214400BA08AE4094B1878094B984703283FF650AD1E
S214400BB06EE514B0BDE8F081C9024000BC08402094
S214400BC0EC704000AC704000C2084020ED1540007C
S214400BD0C91640009D014000F9154000B94040004C
S214400BE001FFFF80061108002517400061184000ED
S214400BF041194000ED164000A51640002D03400068
S214400C0000801F4008B5054B984728B9044B9847C5
S214400C10044B1B68D87B08BD002008BDC9014000B6
S214400C202D034000BC08402008B5054B984728B91E
S214400C30044B9847044B1B68586808BD002008BD05
S214400C40C90140002D034000BC08402000207047EA
S214400C502DE9F04383B089469046254B98470028B7
S214400C6031D1244C244E254D254F336899890904AB
S214400C7041F20D10A84738B3B84710F4807F27D10B
S214400C80013CF2D120E04FEA492901230093434634
S214400C904FF4007249461B4CA04718B91A4B984768
S214400CA0052022E0164B9847184B03401BB1164BC5
S214400CB09847052019E0164BA3F80080154BA3F87B
S214400CC00080002011E010E00F4B984705200CE014
S214400CD01148124BB8F1010F88BF1846064B1B68E7
S214400CE0DB7B13F0080FD0D1CDE703B0BDE8F0832F
S214400CF0C9014000410D0300BC084020C916400011
S214400D00ED164000251740002D034000000058E433
S214400D10C0084020B80840201111080012111000E9
S214400D2010B50C46064B984720B90022054B1A8052
S214400D30052010BD034A13881C1B1480002010BDDC
S214400D4061184000C008402010B50446124B984732
S214400D50F0B11CB10022114B1A8002E00F4B1B88E9
S214400D60C3B90F4B1B88012B03D10E4B984700206D
S214400D7010BD002143F20C100B4B984720B90021C0
S214400D8043F20C10084B9847064B9847002010BD7E
S214400D90052010BD002010BD41194000C00840206D
S214400DA0B80840202D034000C916400030B583B037
S214400DB00D461446164B984738BB1648164B012C22
S214400DC088BF1846154B1B68DB7B13F0080F08BF1F
S214400DD06D020123009323464FF400722946104DBE
S214400DE0A84718B90F4B984705200EE00E4B98477A
S214400DF00E4B03401BB10B4B9847052005E00C4BB0
S214400E001C800C4B1C800020FFE703B030BD00BFA9
S214400E10C90140001891080019911000BC084020F4
S214400E20251740002D034000ED164000000058E412
S214400E30C0084020B808402010B50C46064B9847DE
S214400E4020B90022054B1A80052010BD034A13889E
S214400E501C1B1480002010BDA1194000C008402073
S214400E6010B50446124B9847E8B11CB10022114B0E
S214400E701A8002E00F4B1B88BBB90F4B1B88012B17
S214400E8003D10E4B9847002010BD002143F20C10B2
S214400E900B4B984718B9094B9847052010BD074B90
S214400EA09847002010BD052010BD002010BD00BF93
S214400EB0811A4000C0084020B80840202D0340005A
S214400EC0C916400010B504460F4B9847012816D067
S214400ED018B102280ED0012010BD0C4B1B5D83B903
S214400EE020460B4B984700F00300002814BF002014
S214400EF0022010BD0022054B1A55022010BD0320CB
S214400F0010BD022010BD00BF71034000C408402041
S214400F10050C400008B50020014B984708BD00BFAF
S214400F20C50E400038B504460D46044B9847400071
S214400F30013828602046024B984738BD290C4000AF
S214400F40C50E400008B501460020014B984708BD35
S214400F50250F400008B50020014B984708BD00BF4C
S214400F604D0C400010B5144601220A4B984720B15C
S214400F7002280CBF0220012010BD01212046064B4E
S214400F80984728B9054B9847003018BF012010BD38
S214400F90012010BD510C4000210D4000490D40007D
S214400FA008B50A4601460020014B984708BD00BFD9
S214400FB0650F400010B5144601220A4B984720B1F1
S214400FC002280CBF0220012010BD01212046064BFE
S214400FD0984728B9054B9847003018BF012010BDE8
S214400FE0012010BDAD0D4000390E4000610E40009E
S214400FF008B50A4601460020014B984708BD00BF89
S214401000B50F400010B51048104B98473E210020C1
S2144010100F4B98470F4CA0470028FCD00E4B9847E4
S2144010200E4A0F4B9A620F4CA0470028FCD0022075
S2144010300D4B984700200D4B98470D4B984702485C
S214401040024B984710BD00BF00A3E1118D21400020
S214401050751C4000C91C4000D91C4000013F1820A8
S21440106000060E40E91C4000D11B40000D1C40000D
S2144010707D20400018B908B5024B984708BD0120AE
S214401080704700BF150F400020B908B50846024B10
S214401090984708BD01207047450F4000B0FA80F0E1
S2144010A04009704718B908B5024B984708BD01205B
S2144010B0704700BF550F400028B908B5084611468E
S2144010C0024B984708BD0120704700BFA10F400063
S2144010D028B908B508461146024B984708BD012076
S2144010E0704700BFF10F400090B92DE9F0410C4623
S2144010F09046002A0FDD8F18084E094D306821466D
S2144011002B6898470134A742F8D14046BDE8F081A5
S2144011104FF0FF3070470020BDE8F081A80940201E
S214401120A00940200138022815D82DE9F0410E4686
S21440113014469AB10D46DFF838800C4FD8F80000B8
S21440114015F8011B3B68984700280ADBA81B013CA2
S214401150F4D1BDE8F0814FF0FF3070470020BDE885
S214401160F0814FF0FF30BDE8F08100BFA409402079
S214401170A8094020F8B54FF40042B64B5A60BFF37A
S2144011805F8FB54F3846B54DA847B54E40EA060185
S2144011901120B44CA047B448A847B4490143B448CA
S2144011A0A0473846A84740EA0601B248A047B2489A
S2144011B0A84706F1087606F5403640EA0601AF48ED
S2144011C0A047AF48A84740EA0601AE48A0476FF0A0
S2144011D06040A847AC4E40EA0601AC48A0476FF0D6
S2144011E07040A847AA4F40EA0701AA48A0476FF0B8
S2144011F07040A847A8490143A848A0476FF0604000
S214401200A84740EA0701A648A047A648A84740EA9C
S2144012100601A548A047A54C636A43F4E0236362F1
S2144012200520A34B9847BFF34F8FBFF36F8FBFF395
S2144012304F8FBFF36F8F0023C4F85032636943F477
S21440124000336361BFF34F8FBFF36F8FD4F8806076
S214401250C6F34E3506F007070437C6F3C906B6FA96
S21440126086F000F01F00BFF34F8F334605FA07F1B4
S21440127003FA00F20A43C4F86022013BB3F1FF3F91
S214401280F6D1013DB5F1FF3FEFD1BFF34F8F874B0E
S2144012905A6942F480325A61BFF34F8FBFF36F8F63
S2144012A0844A85495160A1F580715160BFF34F8FE4
S2144012B0BFF36F8FD3F8902222F00102C3F890223A
S2144012C0D3F8942222F00102C3F89422BFF34F8F42
S2144012D0BFF36F8F0A20794CA0470B20A0470C2005
S2144012E0A0471020A0471120A047754A4FF48073AE
S2144012F01361C2F8A0301363724B4FF4006159611A
S214401300C3F8A0105966C3F8901059651962C3F81F
S2144013108410186F20F400601867586F20F400603F
S2144013205867C3F8C010C3F8D410C3F8B0104FF4D1
S21440133000111966C3F8901059655962C3F88010B9
S214401340186F20F400101867586F20F40010586784
S21440135059605D48D0F8141141F01001C0F81411DE
S2144013605A4910200866C1F8900048654862C1F89E
S21440137080000C6F04430C674C6F04434C67486016
S2144013804FF080511966C3F8901059655962C3F8FA
S2144013908010186F20F080501867586F08435867C1
S2144013A059604FF000711966C3F89010596559623C
S2144013B0C3F88010186F08431867586F084358677B
S2144013C059604FF080411966C3F8901059655962CC
S2144013D0C3F88010186F20F080401867586F084395
S2144013E0586759604FF000411966C3F89010596528
S2144013F05962C3F88010186F20F000401867586F85
S2144014000843586759604FF080611966C3F89010DA
S21440141059655962C3F88010186F20F080601867CD
S214401420586F0843586759604FF000611966C3F813
S214401430901059655962C3F88010186F20F000600C
S2144014401867586F0843586759604FF480335361A4
S2144014503EE000BF50180E40FFFF3F00F91A400024
S21440146001000001ED1A4000FFFF1F0001002306A7
S2144014701200400013000020FFFF0300140040202D
S214401480FFFF010015004420010001131600004034
S21440149001000003170000600100250318000070DB
S2144014A019000080FFFF0F001A0010A000ED00E0BA
S2144014B0E11A4000000C0E400C08005AF91C40008F
S2144014C000120E40000E0E400080084000100E40F5
S2144014D0C2F8A0305366C2F8903053655362C2F8E3
S2144014E08030136F23F480331367536F23F48033B5
S2144014F05367F8BD70B44FF080435D689C68D86809
S214401500D9695A6D80261E605D609C60D860D9613E
S2144015105A6500221A6505221A6070BC704700BFE3
S21440152008B501F03F03184311F4807F0CD011F446
S214401530006F02D040F4845006E011F4005F14BF00
S21440154040F4865040F4825011F4804F18BF40F467
S21440155000604FF080431A615861184601F480528B
S214401560036C32B113F41F0F0AD0144B9847002077
S21440157008BD13F41B0F03D0104B9847002008BD3E
S21440158013F0010FECD011F4005F0ED1012008BD1E
S2144015900B6C013A03D1094B9847002008BD03F075
S2144015A03003202BF4D1012008BD4FF080431B6C44
S2144015B04FF0FF324FF08041F1E700BFF514400096
S2144015C010B51220084CA0473A20A0474FF0804361
S2144015D072229A60DA6111225A654FF4E0625A60CC
S2144015E005221A6010BD00BFF91C400000280CBF41
S2144015F004200020704700BF0120704710B433B16C
S2144016004FF08040436D43F48073436505E04FF0F0
S2144016108040436D23F4807343651F4BB3EB410F0B
S2144016202DD31E48B0FBF1F301FB130109B9023B71
S21440163000E0013B4FF08041486820F0FF004860E2
S2144016404868C3F347042043486013F0010F04D0B2
S2144016504B6843F480334B6005E04FF080414B6865
S21440166023F480334B60042A04D0082A0CBFC022DF
S214401670002200E080224FF08043DA6008E04FF01E
S2144016808043596821F0FF01596059685960E4E782
S2144016905DF8044B704700BF7FD1F00880D1F0085A
S2144016A0704700BF4FF080435A6822F460525A6039
S2144016B000221A614FF410625A611A46136C13F0F6
S2144016C0010FFBD0704700BF10B54FF080435A68FB
S2144016D022F460525A6000241C659C610A4601460A
S2144016E02046014B984710BD211540004FF08043DF
S2144016F0186A704710B4031D14304FF08044226AB5
S214401700110E03F8041C110C03F8031C110A03F80D
S214401710021C03F8012C04338342F0D15DF8044BDD
S214401720704700BF70B59DF810402CB14FF48075DF
S2144017304FF08044256503E000254FF08044256542
S2144017404FF080456C6844F4C0546C6012F0030F50
S21440175004D06C6844F400546C6005E04FF080455B
S2144017606C6824F400546C6000F40044002C14BFF1
S2144017704FF480344FF4A02410F4803F07D044F454
S2144017800014C2F308054FF08046B56118E043EAFE
S21440179002454FF08046B56110F4003F02D044F455
S2144017A020140DE010F4802F02D044F4801407E09B
S2144017B010F4002F04D110F4801F18BF44F4002406
S2144017C00026064D2E60064D2A80064A13800A469D
S2144017D001462046044B984770BD00BFCC084020C9
S2144017E0C6084020C80840202115400008B54FF0E4
S2144017F08041164A0B6C134203D0154B9847002085
S21440180008BD13F0020FF5D04FF080431B6B03600A
S214401810104A1368043313600F4A11880F4A12881F
S21440182002FB01F293420ED34FF08041074A0B6C05
S214401830134203D0064B9847002008BD13F0006FB4
S214401840F5D0012008BD012008BD00BF000060C0E3
S214401850F5144000CC084020C6084020C808402068
S214401860F0B589B004460D462022002168462B4B31
S214401870984701222A4B1A622A4B1B8805FB03F520
S21440188014F0030F09D0284B039300954FF0804285
S214401890536843F40053536009E0244B0393AB086A
S2144018A000934FF08042536823F400535360204B1C
S2144018B0019302946A46002119481E4B98471E4BD6
S2144018C0D3F88070C7F34E3607F0070E0EF1040EBD
S2144018D0C7F3C907B7FA87F000F01F00BFF34F8F72
S2144018E01C463B4606FA0EF103FA00F20A43C4F8D9
S2144018F07422013BB3F1FF3FF6D1013EB6F1FF3F04
S214401900EFD1BFF34F8FBFF36F8F0120044BD861E9
S2144019100A4B1A6815441D6009B0F0BDB940400036
S21440192000800740C6084020012004000130040023
S21440193000020040611F400000ED00E0CC0840205F
S21440194070B5114B1A88114B1B8803FB02F2104BE3
S2144019501C684FF080400F490F4E036C0B4206D078
S2144019600E4B984701220C4B1A62002070BDA242D3
S21440197003D9F56D15F0010F04D113F0006FECD0CC
S214401980012070BD012070BDC6084020C808402018
S214401990CC084020000060C000800740F51440009E
S2144019A0F0B589B004460D462022002168462B4BF0
S2144019B0984701222A4B1A622A4B1B8805FB03F5DF
S2144019C014F0030F09D0284B039300954FF0804244
S2144019D0536843F40053536009E0244B0393AB0829
S2144019E000934FF08042536823F4005353600194B1
S2144019F01F4B02936A46002119481E4B98471E4BC0
S214401A00D3F88070C7F34E3607F0070E0EF1040E7B
S214401A10C7F3C907B7FA87F000F01F00BFF34F8F30
S214401A201C463B4606FA0EF103FA00F20A43C4F897
S214401A307422013BB3F1FF3FF6D1013EB6F1FF3FC2
S214401A40EFD1BFF34F8FBFF36F8F0120044BD861A8
S214401A500A4B1A6815441D6009B0F0BDB9404000F5
S214401A6000800740C6084020114001001150010088
S214401A7000020040611F400000ED00E0CC0840201E
S214401A8070B5114B1A88114B1B8803FB02F2104BA2
S214401A901C684FF080400F490F4E036C0B4206D037
S214401AA00E4B984701220C4B1A62002070BDA24292
S214401AB003D9F56D15F0010F04D113F0006FECD08B
S214401AC0012070BD012070BDC6084020C8084020D7
S214401AD0CC084020000060C000800740F51440005D
S214401AE0014B5860704700BF90ED00E0014BD86056
S214401AF01961704790ED00E0202808D90423202281
S214401B0001335200904203D91E2BF9D900E004233A
S214401B1058007047C06C7047806C70472DE9F041A4
S214401B20044688460E4B9847054620460D4B984738
S214401B30054013D00C4C04F160062368434508D199
S214401B406168294205D0E36840469847636825EABD
S214401B500305B44202D01034002DEED1BDE8F0812A
S214401B60151B4000191B4000D008402008B50A212C
S214401B700148024B984708BD000E0E401D1B400012
S214401B8008B50B210148024B984708BD00100E408F
S214401B901D1B400008B50C210148024B984708BD64
S214401BA000120E401D1B400008B510210148024B94
S214401BB0984708BD00140E401D1B400008B5112173
S214401BC00148024B984708BD00160E401D1B4000BA
S214401BD0032807D0042808D002280CBF4FF4807290
S214401BE0002204E04FF4407201E04FF400720649D0
S214401BF00B6B23F4407313430B630A46936E13F048
S214401C00080FFBD0704700BF00060E40184A136B03
S214401C1023F0700318431063936E13F0080F03D03D
S214401C2009E0013B03D11EE04FF4805310498A6E11
S214401C3012F0080FF5D00E4A136B23F0030343F05F
S214401C4002031363906E10F0080004D00020704723
S214401C50013B03D109E04FF4805305498A6E12F0E8
S214401C60080FF5D07047012070470120704700BF2D
S214401C7000060E4038B10E490B6A0E4A1A400E4B0B
S214401C8013430B6270470A48036A090289B20B4A3B
S214401C901A400B4B1343194301620246936E13F0EE
S214401CA0010FFBD0024A116A064B0B431362704782
S214401CB000060E40FCFFC8FE02003701FCFFC8FFCE
S214401CC00100370000003701024B986E00F4803068
S214401CD0704700BF00060E404FF00052014B9A621C
S214401CE0704700BF00060E40024B986E00F00200A0
S214401CF0704700BF00060E403F281ED81F280CD84D
S214401D00114B9A6901238340934318D0012303FA69
S214401D1000F00D4B18610020704720380A4BD3F86E
S214401D2008210123834093430BD0012303FA00F09C
S214401D30054BC3F800010020704701207047002083
S214401D4070470020704700BF00060E4030B48568DC
S214401D508468A54203D084688568A542FBD161B1FA
S214401D60C4F3015000EB8005C4F3034000EB45008C
S214401D7014F4800F18BF0C30086042B1C4F302312F
S214401D8001EB8101C4F3032000EB4101116043B134
S214401D90C4F3021202EB820204F00F0404EB420486
S214401DA01C6030BC704700BFF0B4049EC568C46871
S214401DB0A54203D0C468C568A542FBD199B1C4F317
S214401DC0021000EB800504F00F0000EB4505C4F35D
S214401DD0033000EB8000C4F3032707EB4000642782
S214401DE007FB0500086042B1C4F300518800014477
S214401DF0C4F3034000EB4101116043B1C4F30172E8
S214401E0002EB8202C4F3036101EB42021A6016B190
S214401E10C4F342543460F0BC704700BF436913F0CB
S214401E20020F02D0C161002070470120704700BFFA
S214401E30436913F0010F03D083690B70002070478D
S214401E400120704710B40C0194420FD91AE0416843
S214401E5041F400214160120402F4E0221A43026277
S214401E6000201CE001201AE0012018E0630803EB84
S214401E70C202B2FBF4F2D3085C1E4FF6FE718C42EF
S214401E80E9D9EFE7C9004B0803EBC202B2FBF1F217
S214401E90D3085C1E4FF6FE718C42E5D8D7E75DF856
S214401EA0044B7047084BC0F8E4300023436043625D
S214401EB0836288230360242303604FF480730360A7
S214401EC04FF40023036070470041535570B50546F4
S214401ED00C4616460F4B984700220F4B1A609CB193
S214401EE03246216828460D4B9847024670B96168CD
S214401EF0A368194323691943E3680B4306490B60FB
S214401F0069680B436B6002E0012200E00122104644
S214401F1070BD00BFA51E400040094020451E400041
S214401F2040230360704700BF10230360704700BF24
S214401F30436913F0020F04D0C1F30801C1610020C9
S214401F4070470120704700BF436913F0010F05D06A
S214401F508369C3F308030B60002070470120704775
S214401F6000EB8111CB6D53680B6693684B66136824
S214401F7023F07F430B671369C3F30B034B67536927
S214401F80CB67936923F07F43C1F88030D36923F051
S214401F907F43C1F88430D3688B677047FEE700BF45
S214401FA000B583B0274B284A9A4203D0274B254A90
S214401FB09A4204D3264B274A9A420FD31AE0214925
S214401FC0254B5B1A23F0030304331F4A134452F88D
S214401FD0040B41F8040B9A42F9D1EBE71F4B204A19
S214401FE0D21A22F003021A44043B002143F8041B91
S214401FF09342FBD11B4A1C4B23F07F039360EFF3C5
S2144020001083B3FA83F35B09019372B6BFF35F8F15
S2144020100022164B1A700199154A136843F4700350
S2144020201360BFF34F8FBFF36F8F29B101220F4B61
S2144020301A70BFF35F8F62B60E4B98470E4B9847A9
S214402040FEE700BF000040200C7940009C0840207E
S214402050B00940209C0840209B084020A008402013
S214402060B309402000ED00E0000040003000402072
S21440207088ED00E041404000553E40003C4B1B6B25
S21440208003F00303012B0FD013B1022B29D057E0E6
S214402090384B5B6913F0800F14BF4FF400424FF487
S2144020A0FA42354B1A604BE0314B1B6A13F0807F87
S2144020B003D0324A304B1A6042E0314A2E4B1A6007
S2144020C02B4B1B6A03F07003102B02D0202B04D03E
S2144020D036E02C4A284B1A6032E0284A264B1A60D3
S2144020E02EE0234B1B6A13F0807F03D0234A224BFB
S2144020F01A6012E0224A204B1A601D4B1B6A03F0FE
S2144021007003102B02D0202B04D006E01D4A1A4B39
S2144021101A6002E0194A184B1A60154B1B6B03F005
S2144021200303022B0CD1124A936A926A1248C3F3F5
S2144021300A41036801FB0333D2B2B3FBF2F30360F8
S2144021400B4B1B6B03F07003702B07D10A4A1368C6
S2144021500D49A1FB03135B0813607047044B1B6BD0
S2144021600549C3F302120B68D3400B60704700BFAB
S21440217000060E4010180E4034004020001BB700EA
S21440218000093D0000127A00ABAAAAAA164B984254
S21440219004D84FF08062154B1A607047144B984233
S2144021A003D8144A114B1A607047134B984203D811
S2144021B0124A0E4B1A607047114B984203D8114A88
S2144021C00A4B1A607047104B984204D84FF00422CE
S2144021D0064B1A6070470D4B984294BF0C4A0D4A06
S2144021E0024B1A60704700BFBFF35E01000C0E4002
S2144021F07FE7BD02000100043FDB1C040002000430
S214402200FFCE7B0500030004BFC2DA067FB639085E
S2144022100005000400060004094B1B6813B9094A70
S214402220074B1A60064B1B681A180749914204DB95
S2144022301046034A1060184670474FF0FF3070470C
S21440224044094020B02B4020FCFF45204FF0FF3093
S214402250704700BF4FF400534B600020704700BFEC
S2144022600120704700207047012813D810B5044657
S2144022700B4B9847032804D12046094B9847032820
S2144022800AD058B92046074B9847002814BF042068
S214402290002010BD01207047012010BD012010BD58
S2144022A075104000A510400008B5054B984720B172
S2144022B002280CBF0320012008BD002008BD00BF37
S2144022C0751040002DE9F04F83B083460D46144606
S2144022D01F46164B9847F0B1064601A95846144B80
S2144022E09847B04606FB0742019B03FB06639A42AB
S2144022F013D8B9469FB176024FF0000A0D4F2A46D2
S21440230021465846B84760B90AF1010A4444354464
S214402310CA45F4D106E0012004E0042002E0002093
S21440232000E0012003B0BDE8F08F00BF9D104000E4
S21440233089104000B91040002DE9F04F83B0834625
S2144023400D4614461F46164B9847F0B1064601A95F
S2144023505846144B9847B04606FB0742019B03FB82
S21440236006639A4213D8B9469FB176024FF0000AE8
S2144023700D4F2A4621465846B84760B90AF1010A29
S21440238044443544CA45F4D106E0012004E0042024
S21440239002E0002000E0012003B0BDE8F08F00BF5F
S2144023A09D10400089104000D110400010B582B00A
S2144023B01446032924D8DFE801F01C060E02012348
S2144023C01360002021E001A9114B9847019B01337F
S2144023D02360002019E00F4B9847082812D84FF486
S2144023E08B7323FA00F010F0010F0DD00020207000
S2144023F00BE0094B984700280CBF0020032004E060
S214402400042002E0012000E0012002B010BD00BF21
S214402410891040009D1040007510400030B58BB0CC
S214402420114C07AB08AA09A92046104DA84703AB94
S214402430009304AB05AA06A920460D4CA047049B72
S2144024401B04059843EA4053099843EAC02308987A
S21440245043EA4013079843EA50030698A0F2BC703C
S21440246043EA40600BB030BD60180E404D1D400042
S214402470A91D40003AB101388A1811F8013B00F80E
S214402480013F9142F9D1704722B1821800F8011BF2
S2144024908242FBD1704700BF02398369023B9942B2
S2144024A004D28378806A01FB03007047002070479F
S2144024B000F10B010023DA0142EA530310F8012B26
S2144024C052FA83F3DBB28842F5D11846704700BF14
S2144024D078B108B5027872B1C2888A420DD1407888
S2144024E0074B984700F00100002814BF0320002047
S2144024F008BD09207047092008BD092008BD00BF57
S214402500A922400038B5044601230A4600F13001AE
S21440251040781D4DA84780BB94F82F2294F82E3261
S21440252043EA02231BB2194A934228D194F8691011
S21440253094F86820130443EA016294F86630134323
S21440254094F8672043EA022323F07F43104A9342DD
S21440255017D094F8850094F884301B0443EA006052
S21440256094F88230034394F8830043EA002020F036
S2144025707F43981A18BF012038BD032038BD02207B
S21440258038BD002038BD00BFC522400055AAFFFF19
S21440259046415400F8B503681C78303C092C08D8EE
S2144025A05D783A2D07D102330360072C00F24A814A
S2144025B002E0002400E00024C14B53F824500D6094
S2144025C0002D00F0418116462B7883B16878BD4BCC
S2144025D0984710F0010F0AD1002E00F0378100F026
S2144025E00400C0B200280CBF00200A20F8BD00231B
S2144025F02B70E0B26870B44B984710F0010F40F073
S21440260027811EB110F0040F40F024810021284697
S214402610AE4B9847012817D195F8F231002B00F0C1
S2144026201B8195F8F92195F8F8311B0443EA0263BB
S21440263095F8F641234395F8F74143EA04242146AA
S2144026402846A24B984700E00024032800F0068165
S214402650002840F0058195F83C2095F83B3043EA49
S21440266002231BB2B3F5007F40F0FC8095F847107C
S21440267095F8463053EA01210DD195F8572095F844
S21440268056301B0443EA026395F854100B4395F802
S214402690551043EA0121E96195F840E085F803E0EA
S2144026A00EF1FF33DBB2012B00F2DE8095F83D30B1
S2144026B0AB70002B00F0DA805A1E1A4240F0D880E9
S2144026C095F8427095F8412042EA07272F8117F087
S2144026D00F0F40F0CF8095F8440095F8432052EA1B
S2144026E000220DD195F8536095F85220120442EA24
S2144026F0066695F85020324395F8510042EA00228B
S21440270095F83F6095F83E0050EA062000F0B48009
S21440271001FB0EFE00EB17167644B242C0F0AE80C8
S214402720921BB2FBF3F3002B00F0AA8040F6F57242
S21440273093428CBF022201224FF6F57C634500F29D
S214402740A980E6E095F85F0095F85E20120442EA1C
S214402750006095F85C20024395F85D0042EA00224E
S2144027606A629B0003F2FF13B1EB532FC0F08A80DE
S214402770B6E070446862022A01D15B0099E003EB40
S214402780430003F0010303EB500392E095F82F2239
S21440279095F82E3243EA02231BB24D4A934241D16A
S2144027A095F8332095F832301B0443EA026295F8D8
S2144027B03030134395F8312043EA0223454A93428A
S2144027C032D195F8172295F816321B0443EA026276
S2144027D095F81432134395F8152243EA02233E4AED
S2144027E0934223D195F81F2295F81E321B0443EAE4
S2144027F0026295F81C32134395F81D2243EA0223E1
S214402800EB6095F81B2295F81A321B0443EA0262E5
S21440281095F81832134395F8192243EA02232B61A0
S214402820032204E0032202E0032200E003222A708F
S2144028302A4A138801339BB21380EB800020E8625B
S2144028402871F8BD0B20F8BD0C20F8BD0020F8BD5F
S2144028500320F8BD0A20F8BD0D20F8BD0120F8BDC4
S2144028600D20F8BD0D20F8BD0D20F8BD0D20F8BD9B
S2144028700D20F8BD0D20F8BD0D20F8BD0D20F8BD8B
S2144028800D20F8BD0D20F8BD0D20F8BD0D20F8BD7B
S2144028900D20F8BD0233AB612644AE622044286268
S2144028A0002FF1D14EE74FF0FF332B610023EB6052
S2144028B0BDE703F2FF13B1EB532FE7D3F3E700BFB7
S2144028C04C094020A92240006922400005254000CE
S2144028D055AAFFFF52526141727241614809402039
S2144028E04FF0FF332B610023EB606B7195F861204E
S2144028F095F8603043EA022222446A61012305F1DA
S21440290030016878074CA04700283FF43FAF0322C9
S2144029108DE70233AB612644AE6220442862002F26
S214402920B6D026E7C52240002DE9F047C76A8F4259
S21440293031D00E46044603790BB300F1300801232C
S2144029403A46414640781A4DA84738BB0023237183
S214402950226AE36913449F4211D2E578012D0ED9CD
S2144029604FF0010ADFF84890E3691F4453463A4661
S21440297041466078C847013DEDB2012DF4D186B19D
S2144029800123324604F1300160780A4DA84758B911
S214402990E662BDE8F0870020BDE8F0870120BDE88C
S2144029A0F0870020BDE8F0870120BDE8F08700BF33
S2144029B039234000C522400001295DD9F8B5836916
S2144029C099425BD20C4605460378022B28D0032B4F
S2144029D037D0012B54D101EB5107016A01EB572147
S2144029E02F4B984700284ED1C7F308032B4493F843
S2144029F030600137296A01EB57212846284B984713
S214402A00002843D1C7F30807E81990F8300046EA93
S214402A10002014F0010F14BF0009C0F30B00F8BDEE
S214402A20016A01EB14211E4B984790BB610001F4EC
S214402A30FF716B1893F8310093F8303043EA00206A
S214402A40F8BD016A01EBD411154B984720BBA10095
S214402A5001F4FE7101F130022A44D07893781B04C9
S214402A6043EA0063507843EA00200D4495F830303E
S214402A70184320F07040F8BD012070470120F8BD93
S214402A804FF0FF30F8BD4FF0FF30F8BD4FF0FF304D
S214402A90F8BD4FF0FF30F8BD4FF0FF30F8BD00BF37
S214402AA029294000F8B505460C46C18081680129B1
S214402AB038D003689A69914236D271B91A78032A97
S214402AC001D1596A49B90022EA601A89A2422DD931
S214402AD05B6A03EB14132B611BE09E783601B4420D
S214402AE010D3164F2868B8470146B0F1FF3F1FD0B5
S214402AF001281FD92B689B6998421DD2A41BA4B2FB
S214402B00A642EFD9E96028680D4B984700EB1410B1
S214402B1028612B68303304F00F0403EB44146C61D7
S214402B200020F8BD0220F8BD0220F8BD0220F8BD06
S214402B300120F8BD0220F8BD0220F8BDB9294000AA
S214402B40992440002DE9F041012979D983699942B9
S214402B5078D215460C4606460378022B3BD0032B0C
S214402B604AD0012B64D101EB5108016A01EB582190
S214402B703F4B9847074600285FD1C8F3080314F038
S214402B80010F15D0334493F8302002F00F0242EA8A
S214402B90051283F8302008F1010801233371316AA9
S214402BA001EB58213046324B9847002842D14BE043
S214402BB0334483F8305008F1010801233371316AF9
S214402BC001EB582130462A4B9847A8BB41E0B04419
S214402BD088F8302031E0016A01EB1421244B9847F5
S214402BE0074650BB610001F4FF71731883F83050FC
S214402BF02A1283F8312020E0016A01EBD4111C4BE5
S214402C0098470746C8B9A10001F4FE7101F13003A8
S214402C103344DA781206314402F070422A4381F88F
S214402C20302011125970110C9970120EDA7004E0AF
S214402C30022702E0074600E007460123337114E00E
S214402C40022712E0022710E0C8F30808C5F307126F
S214402C50BDE7C8F3080806EB080393F8303023F0C6
S214402C600F03C5F303221A43B1E73846BDE8F081A7
S214402C70292940002DE9F0410546884631B9C66805
S214402C806EB183699E4228BF012609E0294B9847CA
S214402C90012840D9AB6998424AD3464600E001260F
S214402CA03446244F0134AB699C4202D3012E35D9B9
S214402CB0022421462846B847034638B1B0F1FF3FC4
S214402CC02FD001282DD0B442ECD12DE06FF07042C9
S214402CD021462846184B9847034640B9B8F1000F9E
S214402CE005D0224641462846134B984703465BB9D3
S214402CF0EC602B69B3F1FF3F19D0013B2B610123F8
S214402D006B712046BDE8F081012B0CBF4FF0FF30C1
S214402D100120BDE8F0810120BDE8F0810020BDE83B
S214402D20F0811846BDE8F0810020BDE8F0812046DD
S214402D30BDE8F081B9294000452B4000012928D93B
S214402D402DE9F84304460E468369994224D2174F2C
S214402D504FF00009DFF8588031462046B847054610
S214402D60E0B101281CD0B0F1FF3F1BD04A463146A7
S214402D702046C0470246B0B92369B3F1FF3F03D0AF
S214402D8001332361012363712E46A369AB42E3D826
S214402D9009E0022210467047022204E0002202E0C8
S214402DA0022200E001221046BDE8F883B92940001F
S214402DB0452B40002DE9F84FC4880134A4B2002CBE
S214402DC06ED00369002B6ED00E46054614F00F07F2
S214402DD05DD101330361C16821B903681B89A342F1
S214402DE064D954E000688378013B13EA14134ED14B
S214402DF03C4B9847804601285BD9B0F1FF3F5BD0FB
S214402E002868836998453BD3002E58D0E968364BEE
S214402E1098478046002855D0012856D0B0F1FF3F4D
S214402E2056D000212868314B9847002853D128684F
S214402E304FF40072002130302D4B98472E684146A3
S214402E4030462C4B9847F06200264FF0010BB246B6
S214402E50DFF898900BE083F804B051462868C847DE
S214402E60013600283AD12A68D36A0133D3622B68E8
S214402E709978F2B29142EED81646DA6A961BDE622E
S214402E80C5F80C80414628681A4B98472861EC8064
S214402E902B68303303EB47136B610020BDE8F88F97
S214402EA00420BDE8F88F0420BDE8F88F0420BDE874
S214402EB0F88F0220BDE8F88F0120BDE8F88F042087
S214402EC0BDE8F88F0720BDE8F88F0220BDE8F88FF0
S214402ED00120BDE8F88F0120BDE8F88F0120BDE84D
S214402EE0F88F00BFB9294000752C400029294000C2
S214402EF089244000992440002DE9F04F85B00546CE
S214402F000021644B9847002840F0A4804FF0FF0B08
S214402F10D946614FDA4629692868B847002840F004
S214402F209A806C692678002E00F09680E37A03F04B
S214402F303F02E52E78D013F0080F01D00F2A76D145
S214402F400F2A53D1D5F81C80B8F1000F7AD016F06E
S214402F50400F06D094F80DA006F0BF06EB882B84F1
S214402F6001E0B14566D194F80DB0D34565D12378DC
S214402F7023F04003013B03EB430A03EB8A03DFF8ED
S214402F80289109F10D0A01200396CDF804B01E469B
S214402F90029519F8012BA3185978A35C43EA01233C
S214402FA070B118463D4B98478346FE2E5FD8751C39
S214402FB038F81600394B984783455CD12E4603E0D7
S214402FC04FF6FF7293425AD1D145E2D1DDF804B0B4
S214402FD03246039E029D237813F0400F42D00028CD
S214402FE040D038F81230002B3CD04BE0B9F1000FFF
S214402FF004D120462A4B984782452FD04FF6FF7380
S2144030002B84AB69DA7A12F0010F19D104F10B0068
S21440301001E0A04224D014F8011B13F8012B914282
S214403020F7D04FF0FF090DE04FF0FF090AE04FF0F0
S214403030FF0907E04FF0FF0904E04FF0FF0901E009
S2144030404FF0FF0900212846164B984700283FF4CA
S21440305062AF1BE01AE019E0042017E0002015E0FC
S214403060002013E0013E5FFA86F9DA46EAE7DDF82B
S21440307004B0029D06E0DDF804B0029D02E0DDF8F3
S21440308004B0029DDA464FF0FF09DBE705B0BDE825
S214403090F08F00BFA52A4000292940007D3C400013
S2144030A0B1244000B52D4000107240002DE9F04F8D
S2144030B089B004468769D0F81CA00C22394605A87A
S2144030C0A64B98479DF81F3013F0010F6FD0002392
S2144030D0FB72E3610B2205A93846A04B98470125B1
S2144030E02B462026DFF89482DFF8709214E00B22FD
S2144030F005A93846C847052D0DD92B465146DA0353
S21440310042EA530331F8022B12FA83F39BB20A8841
S214403110002AF4D100E02B460DF1140E072203F0EE
S2144031200F0000F13001392988BF00F13701013A1C
S2144031300EF8011DC3F30F13002BF0D17E2108AB10
S214403140134403F8141C62B13B78202B0BD039464D
S214403150002301339A4207D011F8010F2028F8D1F6
S21440316002E0002300E00023F9180133072A05D8BF
S21440317008A8104410F8140C013200E0304601F85C
S214403180010B072BF1D92046C04728B90135ADB20F
S214403190642DACD10720DDE0642D00F0C780042804
S2144031A040F0C6809DF81F30FB72C4F81CA09DF806
S2144031B01F3013F0020F14D0BAF800303BB1002392
S2144031C001339BB23AF81320002AF9D100E00023DD
S2144031D01933634E86FB0326DB17C3EBA606B6B24F
S2144031E000E00126002120465E4B9847002840F02C
S2144031F0A0804FF000094D465B4FCA46DFF8748109
S21440320021692068B8470346002840F0A2806369D9
S2144032101B78E52B00D03BB90DB9B4F806900135C4
S214403220ADB2AE4201D186E0554601212046C047A8
S21440323003460028E4D08CE049462046494B984750
S2144032400346002840F08380A069484B984700908A
S214403250751EADB20027019721692068424B9847FA
S2144032600346002873D1D4F81C9060695FFA85FB4A
S2144032709DF8003043730F23C37207738776C77673
S2144032800BF1FF3303EB430103EB8101384A02F1B4
S2144032900D08019B4FF6FF764FF0FF0AB3424ED023
S2144032A001F1010E39F811301178435401444FEAC8
S2144032B0132C81F801C013B97146334600E07146BD
S2144032C001324245EAD14FF6FF72934202D039F8B6
S2144032D011300BB94BF0400B80F800B02368012248
S2144032E01A7139462046234B9847034678BB013D22
S2144032F0ADB2002DB0D1216920681B4B98470546DA
S214403300C0B966692022002130461B4B98470B22E5
S214403310A1693046114B9847A369DB7A03F018033E
S2144033203373236801221A71284613E0072011E000
S21440333010E00FE00EE0012E3FF67EAFDBE792F89E
S21440334000E000F80EA086448EF801A0B8E71846C4
S21440335000E0184609B0BDE8F08F00BF7524400075
S2144033604FECC44EA52A400029294000B124400015
S21440337010724000B52D400089244000F92E4000D0
S21440338070B5044600212C4B98470346002850D180
S2144033902378032B45D16379002B42D00026E66282
S2144033A004F130054FF4007231462846234B9847C7
S2144033B0552384F82E32AA2384F82F32522384F8D9
S2144033C0303084F83130612384F83230412284F83A
S2144033D03320722184F8141284F8151284F81622C9
S2144033E084F81732236984F818321A1284F819229E
S2144033F01A0C84F81A221B0E84F81B32E36884F8F1
S2144034001C321A1284F81D221A0C84F81E221B0E37
S21440341084F81F320123626929466078084DA84720
S2144034206671002211466078064B9847031C18BF09
S2144034300123184670BD00BF29294000892440005A
S21440344039234000AD2340002DE9F04F83B083463A
S2144034500D460B782F2B01D05C2B00D10135002375
S214403460CBF808302B781F2B08D800215846B94B8C
S214403470984703460022CBF8142066E1DFF8ECA21A
S2144034802B782F2B01D05C2B05D115F8013F2F2B25
S214403490FBD05C2BF9D0DBF81C6028782F2818BFAF
S2144034A01F2840F249815C2800F04681A6F10208B8
S2144034B02F460124A14604E0B3F5807F00F03A8110
S2144034C01C464946D0470146002800F033817F28F5
S2144034D009D8222800F0ED809F4A12F8013F13B128
S2144034E09842FAD1E5E028F8021F631C17F8010F4E
S2144034F02F2818BF1F2801D95C28DDD11D4420285D
S21440350034BF04270027002C00F0D3806FF0004320
S214403510234406EB430236F81330202B0AD02E2BDA
S21440352040F0EB8006E032F8023D202B02D02E2BF6
S21440353040F0E380013CF6D1BBE0013331F8022F86
S214403540202AFAD02E2AF8D01BB147F0030700E015
S2144035500023A8F1020806EB080236F808102E29C8
S21440356001D0013C06D1082200924FF00009CDF868
S214403570049004E032F8021D2E29F2D1F3E703F15D
S214403580010836F81300002860D0202803D02E28E3
S21440359005D1A04503D047F003074346EFE7009B1D
S2144035A0994501D2A0451AD1009B0B2B07D147F075
S2144035B00307DBF818301A78E52A55D14BE0A045CA
S2144035C018BF47F00307A04540D8019B9B00DBB2DD
S2144035D0019323460B2200924FF00809CFE77F283D
S2144035E040F29F800021D0470346002800F0AA8082
S2144035F05A4A134413F8801C88B247F0020748B171
S2144036002B2907D0564A12F8013F002B00F08B803A
S2144036108B42F8D147F003075F200FE0019B43F051
S214403620020301930AE0A0F161039BB2192B05D86F
S214403630019B43F001030193203880B2DBF8183039
S21440364003F80900434609F1010998E7DBF818300A
S2144036501A78E52A01D105221A70009B082B03D15F
S214403660019B9B00DBB20193019901F00C020C2AEE
S21440367003D001F00303032B01D147F0020717F0F4
S214403680020F0AD1019B03F00303012B08BF47F04A
S2144036901007042A08BF47F00807DBF81830DF7227
S2144036A05846304B9847DBF81830DA7A034660B114
S2144036B001E0062349E0042847D102F00402D2B2D2
S2144036C0002A14BF034605233FE012F0040F3CD106
S2144036D0DBF81430DA7A12F0100F0CD0597D1A7DD0
S2144036E042EA0121D87E9A7E42EA002343EA014319
S2144036F0CBF80830C4E6052327E04FEA4408002309
S21440370026F814300B222021DBF81800164B984779
S2144037103388202B02D02E2B7FF41AAF314600235D
S2144037200BE701466CE7A0F141039BB2192B7FF6ED
S21440373075AF78E7062308E001351F28B9D900247D
S2144037402746E0E647F0020764E7184603B0BDE8C0
S214403750F08F00BFA52A4000C87140004871400065
S214403760D4714000F92E400089244000393C400086
S21440377007280DD8074B53F820300BB100221A709B
S21440378009B100230B70034B43F82010002070470C
S2144037900B2070474C0940202DE9F041ADF50E7DD9
S2144037A00546019116460023036002F01F0702F00B
S2144037B01E0285A901A8584B984782AB8B9302AB53
S2144037C08C93002840F08A80019985A8534B9847EF
S2144037D003468A9C14B9002800F0868016F01C0F19
S2144037E048D05BB1042B40F0878085A84C4B984767
S2144037F047F008078A9C034638B188E0E37A13F01E
S214403800110F7DD116F0040F7CD117F0080F42D06F
S214403810444B9847A0730312E373030C2374000EC3
S21440382060740023E37223776377A377E377667D3C
S214403830227D42EA0626E27EA17E41EA0222A37665
S214403840E3762375637585980123037152EA06462D
S2144038501FD0D0F82C803146334B9847034600287B
S21440386055D18598721EC2604146304B98470346F4
S21440387078B14CE0002B4AD1E37A13F0100F43D1D5
S21440388016F0020F02D013F0010F3FD116F0080FCA
S21440389001D047F02007859BDB6AEB612C62AF7155
S2144038A0617D237D43EA0121E37EA27E42EA032333
S2144038B043EA01432B61E27FA37F1B0443EA026392
S2144038C0227F1343627F43EA0223EB600023AB6010
S2144038D0AB61859A2A60D288AA8018E003468A9C03
S2144038E016F01C0FC6D07DE716F01C0F03D106233A
S2144038F0002BD4D00BE0062347F008078A9CF7E756
S214403900072304E0082302E0042300E007231846C8
S2144039100DF50E7DBDE8F081952540004934400008
S214403920AD3040001D2440003D2D40002929400078
S2144039302DE9F84F04468946164698460023C8F8AF
S214403940003081880068744B9847002840F0DB8040
S214403950A37913F0800F40F0D88013F0020F00F0E8
S214403960D780E368F34280F0C280002E00F0BF802C
S214403970A268C2F30803002B40F08C80206883784E
S214403980013B03EA522313F0FF0723D13AB92369D8
S21440399063B90021614B98470346206103E06169A3
S2144039A05E4B98470346002B00F0A180012B06D1C2
S2144039B0A37963F07F03A3710220BDE8F88FB3F1CB
S2144039C0FF3F06D1A37963F07F03A3710120BDE8D2
S2144039D0F88F63612068C26AA3699A420AD10021BF
S2144039E04F4B984730B1A37963F07F03A371012012
S2144039F0BDE8F88FD4F800A061695046494B984717
S214403A00054630B9A37963F07F03A3710220BDE871
S214403A10F88F3D445FEA562B29D09AF8023007EBE0
S214403A200B029A4288BFC7EB030B5FFA8BF32A461A
S214403A3049469AF801003C4FB84730B1A37963F045
S214403A407F03A3710120BDE8F88F2068C16A491B37
S214403A508B4509D94FF4007209EB41213030334B86
S214403A609847236800221A714FEA4B2533E0A26834
S214403A70E3689A420DD300215046294B984730B10F
S214403A80A37963F07F03A3710120BDE8F88F236814
S214403A90DD62A561A568C5F30805C5F50075B542A4
S214403AA028BF3546A16920681D4B984730B1A37999
S214403AB063F07F03A3710120BDE8F88FA068C0F3D0
S214403AC00800303023682A4649461844174B984722
S214403AD0236801221A71A944A3682B44A360D8F82E
S214403AE000302B44C8F80030761B7FF441AFA36803
S214403AF0E268934288BFE360A37943F02003A37152
S214403B000020BDE8F88FBDE8F88F0220BDE8F88FAA
S214403B100720BDE8F88F00BFD1244000752C400038
S214403B20292940009924400039234000752440004C
S214403B3038B50446818800681E4B984703460028DF
S214403B4035D1A27912F0200F31D0E16920681A4BA6
S214403B509847034658BB256AEB7A43F02003EB723E
S214403B60E3682B77E3681B126B77E389AB77E37BDD
S214403B70EB772369AB7623691B12EB76638A2B754A
S214403B80638A1B126B750D4B9847A8750312EB752D
S214403B90030C2B76000E6876A37923F02003A371DE
S214403BA0236801221A712068054B98470346184639
S214403BB038BD00BFD1244000292940001D244000C4
S214403BC08133400010B50446034B9847034608B976
S214403BD000222260184610BD313B400010B582B02E
S214403BE00C468DF8000001AB012269462046054C84
S214403BF0A047019B012B0CBF01204FF0FF3002B0C5
S214403C0010BD00BF31394000F8B503787BB10E4691
S214403C100546441C074F31461846B847B0F1FF3FAB
S214403C2006D0601B14F8013B002BF4D1F8BD0020F1
S214403C30F8BD00BFDD3B40007F281BD911B9C7281F
S214403C4008D112E0FF2814D8A0F180030A4A32F8BF
S214403C5013007047084A012332F8021F814205D0FC
S214403C6001339BB2802BF7D100E000238033D8B2DB
S214403C7070470020704700BF2072400061280AD07D
S214403C8007490022013231F8023F834201D0002B1F
S214403C90F8D10BB970470022024B33F81200704738
S214403CA00075400020734000F0B583B005460C46D2
S214403CB000230193294B984207D11F46284E2146A0
S214403CC03846B0470028FAD115E0264B984207D12F
S214403CD01F46234E21463846B0470028FAD115E005
S214403CE0214B984207D11F461D4E21463846B047C5
S214403CF00028FAD117E01D4B9D4207D11F46184EAB
S214403D0021463846B0470028FAD119E0184B9D4264
S214403D1009D11E46174D01A93046A8470028FAD1BA
S214403D20019B237018E0144B9D4209D11E46114D4D
S214403D3001A93046A8470028FAD1019B23700BE022
S214403D400E4B9D4208D11E460A4D01A93046A84753
S214403D500028FAD1019B237003B0F0BD00080E4046
S214403D60311E4000000A0E40001A0E40001C0E4055
S214403D7000400240491F40000080024000C0024010
S214403D8070B50C462A4B984208D11E46294D21460E
S214403D903046A8470028FAD1012070BD264B9842ED
S214403DA008D11E46234D21463046A8470028FAD162
S214403DB0012070BD214B984208D11E461D4D21461C
S214403DC03046A8470028FAD1012070BD1C4B9842C7
S214403DD008D11E46174D21463046A8470028FAD13E
S214403DE0012070BD174B984208D11E46164D2146FD
S214403DF03046A8470028FAD1012070BD134B9842A0
S214403E0008D11E46104D21463046A8470028FAD114
S214403E10012070BD0E4B984208D11E460A4D2146E1
S214403E203046A8470028FAD1012070BD002070BD5A
S214403E3000080E401D1E4000000A0E40001A0E40AC
S214403E40001C0E4000400240311F400000800240EF
S214403E5000C002402DE9F041ADF5207D9BAC4E4DB3
S214403E600FCD0FC42B68238001224C4B1A70BFF332
S214403E705F8F62B64A4B98474A4B98474A4D4B4BE2
S214403E801D604B4A4B4B1A604B4A4C4B1A604FF4E2
S214403E90E1330093C02301934FF400630293002460
S214403EA0039404940E20464B9847464A6946284653
S214403EB0454B98472846454B98472846444B984795
S214403EC0444E336821469868434DA8473368214698
S214403ED05868A847414B98474148424CA047424AF9
S214403EE042494348A047DFF854812746414E424C5A
S214403EF04046B8470020B047012809D13F48B84758
S214403F003F48B84700252846A0470228FBD1F1E79E
S214403F100028EFD13B48B8474FF40C7200210FA859
S214403F20394B98470FA90020384B98470B2803D1A8
S214403F300B213748B84726E03648B8473648B84792
S214403F40A0A9302301F8143D0A2206A8334B98470F
S214403F50014610B12E48B84715E02E48B8473048BD
S214403F60B84706A92F48304B984728B906A82F4B84
S214403F7098472F48B84706E02648B84706A82B4B30
S214403F8098472C48B8472C48B84700252846A047AD
S214403F900228FBD1ACE700BF7478400030004020D8
S214403FA0051040007511400000800240A8094020DE
S214403FB0813D4000A4094020A93C4000A009402083
S214403FC0F91C400080D1F008CD1E4000211F400063
S214403FD0291F4000600440205541400045034000F2
S214403FE0E076400091404000107740001C7740004B
S214403FF028774000C50E40007103400070774000AF
S21440400084774000AC774000B940400071374000AC
S214404010C8774000D8774000E077400099374000A6
S214404020FC77400020784000093C4000C53B4000FB
S2144040303478400040784000587840004077400050
S21440404070B50F4E0F4D761BB61018BF002405D026
S214404050013455F8043B9847A642F9D10A4E0B4D19
S214404060761B03F03DFCB61018BF002406D0013482
S21440407055F8043B9847A642F9D170BD70BD00BFC5
S214404080EC784000EC784000F4784000EC78400053
S2144040900FB400B5074983B004AB086853F8042B47
S2144040A08168019300F042F903B05DF804EB04B078
S2144040B0704700BF6004402070B4840746D0541E4A
S2144040C0002A41D0CDB2034602E0621EE4B3144655
S2144040D003F8015B9A07F8D1032C2ED9CDB245EAF6
S2144040E005250F2C45EA054519D903F11002264649
S2144040F0103E0F2E42F8105C42F80C5C42F8085C0A
S21440410042F8045C02F11002F2D8A4F1100222F048
S2144041100F0204F00F041032032C13440DD91E4630
S2144041202246043A032A46F8045BFAD8221F22F0B5
S21440413003020432134404F003042CB1C9B21C44F5
S21440414003F8011BA342FBD170BC704714460346DC
S214404150C2E700BF00290CBF022200224FF4806352
S21440416000F000B82DE9F043514C256883B0044672
S2144041700F4690461E4615B1AB6B002B79D0B8F172
S214404180020F04D0B8F1010F7FD8002E7DDB214608
S214404190284601F017F9216B41B104F140039942DA
S2144041A002D0284601F06CFA00232363B4F90C30A1
S2144041B00022A26162601A0654D423F44A6323F0B4
S2144041C00303B8F1020FA38139D001AB6A462146FA
S2144041D0284601F0F3FCA3891843A08126B327B3F1
S2144041E0AB6B002B4DD0009BB4F90C0027609E4271
S2144041F01CBF40F40060A081B8F1010F08BF40F03A
S214404200010083B208BFA08103F0080080B2276196
S214404210666118B313F001002FD000207642A661E5
S214404220A06003B0BDE8F083009E304601F03AFD42
S214404230074668B3A38943F08003A381D0E70020F4
S21440424004F1430243F0020300250121A381A56047
S21440425022602261616103B0BDE8F083A06003B0D4
S214404260BDE8F0832169284601F00AFAB4F90C301B
S214404270A3E7284601F03AF981E7A66003B0BDE817
S214404280F083284601F032F9ADE74FF0FF30E2E721
S214404290DDF80090B14506D0484601F003FD0746DC
S2144042A008B14E46C6E7B4F90C304FF0FF30C7E7CA
S2144042B0600440204B6E2DE9F0479C0492462CD576
S2144042C0936812683BB30F46804602F1080919E925
S2144042D06000B60817D0043D002401E0A64210D086
S2144042E03A4655F8041F404601F06AF9431C04F16B
S2144042F00104F3D10023CAF80830CAF80430BDE8F8
S214404300F087DAF80830A3EB8603CAF8083009F1DC
S2144043100809002BDBD10020ECE701F099FA0023D6
S214404320CAF80830CAF80430BDE8F0872DE9F04FE7
S214404330ABB01C46009190460493059018B1836B31
S214404340002B00F0DE800098B0F90C108AB295047D
S21440435007D4436E41F4005223F4005382814366EF
S21440436092B2110740F1B180009B1B69002B00F010
S214404370AC8002F01A020A2A00F0B58000230DF144
S214404380680B02930F930E93CDF834B0DA4698F844
S21440439000304446FBB1252B02D11CE0252B03D030
S2144043A014F8013F002BF9D1C8EB04059DB10E9BD4
S2144043B00F9ACAF8008001332A44072BCAF80450E3
S2144043C00F920E937BDD002A40F02885029B0E92CA
S2144043D02B44DA4602932378002B00F03E840021DB
S2144043E04FF000034FF0FF328DF82F3004F10108F4
S2144043F06378019208460E460C4608F10108A3F180
S2144044002002582A00F29383DFE812F04603910315
S21440441091034E03910391039103910391039103FA
S21440442089026702910380006C029103C60159021B
S214404430590259025902590259025902590259025F
S2144044409103910391039103910391039103910387
S21440445091039103CB01910391039103910391033F
S21440446091039103910391039103140291039103E5
S214404470910391039103EE0291039103110391037B
S2144044809103910391039103910391039103910347
S214404490910334038A0391039103910367038A03CC
S2144044A0910391036C039103790395028500E90219
S2144044B091039B029103BA029103910353030AF1BD
S2144044C0080A029B2B44029385E70099059800F062
S2144044D061FE002840F05885009B9A8902F01A0237
S2144044E00A2A7FF44BAF0099B1F90E30002BFFF645
S2144044F045AF23464246059800F016FE2BB0BDE871
S214404500F08F00F0F3FF1EE76442049346F0040683
S21440451098F8003071E7302104988DF830100199F2
S21440452006944FF0000378228DF82F30002903467A
S2144045308DF83120046803F104034FF0000546F07F
S2144045400202C0F2258526F0800654EA050246F0AF
S2144045500206049340F0BF84B348019B002B40F012
S2144045601C8499460023019303935F46019B039A5C
S2144045709342B8BF13461D46B9F1000F00D001352F
S21440458016F00203079318BF023516F0840308930B
S21440459040F0F182069B5C1B002C40F3EC82102C12
S2144045A040F35685DFF88492DDF838E00F9AD4461B
S2144045B01023C2467046A8464D46DDF8149007E0E4
S2144045C000F1020E0CF1080C0846103C102C13DDCE
S2144045D0411C103207290F92CCF80050CCF804301A
S2144045E00E91EDDD002A40F0B782103C102C1046AC
S2144045F04FF0010EDC46EBDCA94670464546D046F9
S214404600E246224407280F92CAF80090CAF80440AF
S2144046100E9000F375839DF82F300AF1080A00F1DA
S214404620010E002B40F0B082079B002B00F0C382A7
S21440463002320CA90223BEF1070F0F92CDF838E0E4
S2144046408AE80A0040F37883002A40F00A84089BF0
S214404650802B4FF0010E1046DA4640F0B082069BA3
S2144046605C1B002C40F3AB82102CDFF8C49140F367
S2144046700B85D6461023C246A8464D46DDF8149014
S21440468007E000F1020C0EF1080E0846103C102C14
S21440469013DD411C103207290F92CEF80050CEF899
S2144046A004300E91EDDD002A40F01583103C102CAE
S2144046B04FF0010C1046DE46EBDCA9464546D04698
S2144046C0F2462244BCF1070F0F92CAF80090CAF88F
S2144046D00440CDF838C000F3D283019B03995C1A9E
S2144046E0002C0AF1080A0CF1010E604600F36D82B8
S2144046F00399CAF800700A44BEF1070F0F92CAF831
S2144047000410CDF838E040F3CE82002A40F03A83D9
S21440471070070E9238D5069B5C1B002C34DDDA46BB
S214404720102C40F3AB84DFF804910E994F461026C8
S214404730DDF8149006E0881C0AF1080A1946103C79
S214404740102C13DD4B1C1032072B0F92CAF800704A
S214404750CAF804600E93EEDD002A40F08E82103CCC
S214404760102C4FF001001146DA46EBDCB9462244E5
S21440477007280F92CAF80090CAF804400E9040F3FB
S2144047809B82002A40F02584029B069AAA42ACBF30
S2144047909B185B19029399E246F0800698F8003021
S2144047A02BE60694002940F0AF8446F01006B30688
S2144047B040F112830499073121F00701D1E9002323
S2144047C00831049114461D46002A73F10003C0F2D6
S2144047D08683019B9DF82F90002BC0F21A8354EAE3
S2144047E0050326F0800600F0ED80002D08BF0A2C59
S2144047F0C0F0ED805F46204629460A22002302F09C
S214404800C9FA303207F8012D2046294600230A22ED
S21440481002F0C0FA04460D4654EA0503EBD1C7EB56
S2144048200B030393A2E600BFB4784000D078400064
S214404830907840000694002940F0628446F01006C6
S21440484016F0200300F0AE82049B073323F00703E4
S2144048504FF000028DF82F20D3E9004503F10802FF
S214404860019B0492002BC0F2748154EA050326F0A3
S214404870800640F06E81019B002B00F030844FF0A4
S2144048800009002400255F46E20842EA4572E9082E
S21440489004F007030D461446303354EA050207F881
S2144048A0013DF1D1F407BAD5302BB8D030227B1E6B
S2144048B007F8012CC3EB0B0203921F4656E6A3F102
S2144048C03002002418F8013B04EB840402EB440455
S2144048D0A3F13002092AF5D991E598F80030012174
S2144048E02B208AE598F800302A2B08F1010500F0C5
S2144048F0DD83A3F13002092AA84698BF002500F2BE
S214404900CE8318F8013B05EB850502EB4505A3F180
S2144049103002092AF5D945EAE57201926FE5049A14
S21440492014681346002C03F10403FFF6EDAD049320
S21440493098F8003061E50694002981D08DF82F0064
S2144049407EE7049A069417684FF000038DF82F30E0
S214404950141D019B002F00F08683002BC0F25F835E
S2144049601A460021384601F063FC002800F08F8389
S214404970C31B0393002304949DF82F900193F5E501
S2144049800694002940F0B98316F0200935D116F078
S214404990100303D116F0400940F02A83049A1346C8
S2144049A01468019A8DF82F90002A03F104034FF003
S2144049B00005C0F2328354EA050226F080060493CE
S2144049C07FF413AF019B002B3FF4CCAD00242AAFFD
S2144049D0303407F8414DC7EB0B030393C6E546F06A
S2144049E0200698F8003008E50694002940F06E83CB
S2144049F046F0100616F02009C9D0049B073323F072
S214404A0007034FF000028DF82F20D3E9004503F14D
S214404A100802019B0492002BC0F2F98154EA050378
S214404A2026F080064FF000097FF4DFAECAE7069412
S214404A30002940F05183B206AE4841D5049A073269
S214404A4022F00702D2E9004502F10801049116F06F
S214404A50010900F0778154EA050240F026824FF0C3
S214404A6000038DF82F30019B002BC0F2968126F074
S214404A70800672E5049A069413688DF84030134613
S214404A804FF00001012504338DF82F100493039551
S214404A9010AF0023019373E598F8003000287FF4A8
S214404AA0ACAC01212020A8E446F0010698F800307E
S214404AB0A3E40694002940F00C83B2068E48BDD489
S214404AC00499F7060A4600F19D81750640F19A81E1
S214404AD004320C8804920025B9E746F0400698F860
S214404AE000308AE498F800306C2B03BF98F8013009
S214404AF046F0200608F1010846F010067DE400293D
S214404B0040F00983B40640F11C82049A0299136867
S214404B10CD170846043229460492C3E9000136E41C
S214404B20069400293FF443AE8DF82F003FE60694E6
S214404B30002940F0ED82002B00F08F8001258DF893
S214404B4040304FF000038DF82F30039510AFA0E7AC
S214404B5004934FF0000996E60DAA0099099348463B
S214404B60FFF7A8FB00287FD10E980F9A099B00F10B
S214404B70010EDC4629E50E980F9A00F1010E9DF8CD
S214404B802F30002B3FF450AD01320DF12F010123A1
S214404B90BEF1070F0F92CDF838E08AE80A0040F3DE
S214404BA0BF80002A40F04E810799002940F0BE8021
S214404BB09E461046DA46089B802B3FF450AD019B3C
S214404BC003995C1A002C7FF793AD102CDFF82C91DC
S214404BD025DDD4461023C246A8464D46DDF814903F
S214404BE007E000F1020E0CF1080C0846103C102CB1
S214404BF011DD411C103207290F92CCF80050CCF83A
S214404C0004300E91EDDDD2B9103C102C4FF0010E61
S214404C101046DC46EDDCA9464546D046E2462244F0
S214404C20BEF1070F0F92CAF80090CAF80440CDF8BC
S214404C3038E02EDC0AF1080A0EF1010E58E50DAAFE
S214404C40009901934846FFF735FB68B90E980F9ACE
S214404C50019B00F1010EDC46C8E70F9B23B1059887
S214404C6000990DAAFFF726FB009B9B895A0600F188
S214404C708B8102982BB0BDE8F08F0DAA009948466C
S214404C80FFF718FB0028EFD10E990F9A481CDA461A
S214404C9055E5002A40F0FB80039A1B9201230F92B1
S214404CA01A970E93DA460AF1080A710704D5069B4E
S214404CB05C1B002C3FF734AD029B0699A942ACBF63
S214404CC05B185B190293002A40F0B38000230E93D2
S214404CD0DA46FFF75CBB0DAA009907934846FFF7F4
S214404CE0E9FA0028C0D10E980F9A079B00F1010CF4
S214404CF0DE46CBE4A0784000B47840009078400090
S214404D00002A40F033819DF82F30002B00F0F580CC
S214404D1001230DF12F011A461B939E461A91DA463F
S214404D2070460AF1080A0EF1010E7DE40CA9022233
S214404D309E461A911B92DA4670460AF1080A0EF110
S214404D40010E38E7019B8DF82F90002BC0F22A8188
S214404D5054EA050326F080063FF4FFAB5F4623097E
S214404D6004F00F0143EA05732A091C461546435CC6
S214404D7007F8013D54EA0503F1D1C7EB0B03039353
S214404D80FFF7F4BB0DAA00990598FFF793FA0028A1
S214404D907FF46AAF0F9ADA4687E74FF0000900249F
S214404DA00025DBE716F0100200F0B28004998DF87B
S214404DB02F300A460C680199002902F104024FF090
S214404DC00005C0F2598154EA050126F08006049297
S214404DD03FF451AD994656E5F7060AD4750608D510
S214404DE00499B1F900400431E51722462B46049158
S214404DF0EAE4049A146813460433E51704932246FB
S214404E002B46E1E414680432049200251FE64FF076
S214404E10000954EA05037FF4E8ACD8E50DAA0099EA
S214404E200598FFF747FA00287FF41EAFDA46FFF7EB
S214404E3048BB0DAA00990598FFF73CFA00283FF4B6
S214404E4045AF11E70DAA00990598FFF733FA0028F9
S214404E507FF40AAF0E980F9A00F1010EDA46FFF77C
S214404E60E3BB0DAA00990598FFF724FA00287FF4C3
S214404E70FBAE0E980F9A00F1010EDA469BE6002A2A
S214404E8040F0D8804FF0010E1046DA4697E60DAA5D
S214404E9000990598FFF70EFA00287FF4E5AE0E9BC2
S214404EA00F9A03F1010EDA4622E430228DF83020C4
S214404EB0019A8DF83130002A4FF000038DF82F30DC
S214404EC046F00203C0F2CB8026F0800646F002068B
S214404ED04FF0000942E74FF0000990483EE7019B3B
S214404EE064424FF02D0965EB4505002B8DF82F9059
S214404EF0FFF67BAC26F0800677E4079B002B72D04B
S214404F000CAB02221A931B924FF0010EDA4613E7BF
S214404F1016F0400948D004998DF82F200B460C888F
S214404F200199002903F104034FF00005FFF610AE87
S214404F3054EA050126F0800604933FF49CAC914663
S214404F40A1E4F0060AD4710608D5049A1368043220
S214404F500492BDF808201A80FFF719BA049A13681D
S214404F6004320492029A1A60FFF711BA0DAA009909
S214404F700598FFF79FF900287FF476AE0E980F9AB3
S214404F8000F1010EDA46FAE54FF0FF30FFF7B6BA09
S214404F906248164654EA050204934FF000097FF42F
S214404FA0DDAEFCE6049BF5E7049A8DF82F90134699
S214404FB01468019A002A03F104034FF00005FFF637
S214404FC0C7AD54EA050226F0800604937FF45BAC36
S214404FD051E40DAA00990598FFF76CF900287FF474
S214404FE043AE0F9A68E610464FF0010EDA46E6E505
S214404FF004998DF82F300A460C880199002902F151
S21440500004024FF000054EDB54EA050126F0800608
S214405010049299467FF4E9ABD4E40493F9E6384623
S214405020049401F0ADFC002303909DF82F9001936B
S214405030FFF79CBA0DAA00990598FFF73BF90028A0
S2144050407FF412AE0E980F9A00F1010EDA46B6E5DE
S2144050500E980F9ADFF8CC900130FFF7D2BA1E4672
S2144050604FF000097AE6062B28BF062303930494E4
S21440507023EAE3752A4F0CE504926AE50E98DFF8BA
S214405080A4900130FFF773BBF446FFF71ABB019BB1
S2144050909DF82F90039304940190FFF767BA00227F
S2144050A00192FFF7ACB904929946B2E6049A1368A7
S2144050B001930432002B049298F80130A846BFF6BC
S2144050C09CA94FF0FF320192FFF797B98DF82F0059
S2144050D08EE48DF82F00F0E48DF82F00ABE499466F
S2144050E0F30705D52AAF302307F8413DFFF797BBB6
S2144050F0019B03935F46FFF739BA8DF82F0043E4D0
S2144051008DF82F00FFF79ABB8DF82F00FFF74DBBA9
S2144051108DF82F000FE58DF82F00F3E4B4784000AB
S214405120C8784000D0784000F0B50C46ADF26C4DE3
S2144051308989666EE589199621F00201666AADF89E
S2144051400E500025E769ADF80C10099606951AAE84
S2144051504FF4806569460096049602950595079734
S2144051600646FFF7E3F8051E07DB3046694600F0C3
S21440517029F9002818BF4FF0FF35BDF80C305B0604
S21440518003D5A38943F04003A38128460DF26C4D16
S214405190F0BD00BF38B5304B1B6805460C4613B112
S2144051A09A6B002A38D0B4F90C2093B218070CD565
S2144051B02069A8B113F001021ED0636900225B4249
S2144051C0A361A260F0B1002038BDD9063CD558078F
S2144051D026D4206942F00803A3819BB20028E9D177
S2144051E003F42072B2F5007FE4D02846214600F052
S2144051F015FDA3892069DDE7990758BF6269A2605B
S2144052000028E0D1B4F90C301A06DDD543F040034F
S214405210A3814FF0FF3038BD184600F067F9C2E76B
S214405220216B51B104F14003994204D0284600F066
S21440523027FAB4F90C200023236300232069636017
S21440524022F024022060C5E742F0400209232B608A
S2144052504FF0FF30A28138BD60044020024B13B1AE
S214405260024800F005B870470000000001554000B5
S214405270002301461A46184601F094BCB1F90C309A
S2144052809AB22DE9F0410D46110780463CD46A6833
S21440529043F40063002AAB8173DDAC6A002C4BD02C
S2144052A09BB203F48052002192B2D8F80060C8F84E
S2144052B00010002A69D02A6D5F0705D569682B6BF8
S2144052C0521A0BB1EB6BD21A0023E9694046A0474D
S2144052D0441C3CD0B5F90C302A692A6023F400639C
S2144052E00022AB81DB046A6049D4296BC8F80060B1
S2144052F011B305F14003994202D0404600F0C0F990
S21440530000202863BDE8F0812E69AEB12C682E607F
S21440531090070CBF6B690023A41BAB600AE02346D2
S21440532032466F6AE9694046B8470028A4EB000455
S214405330064404DD002CF2DC0020BDE8F081AB8999
S21440534043F04003AB814FF0FF30BDE8F081D8F822
S21440535000201D2AF3D81A4BD34003F0010383F0F4
S2144053600104002BEBD0B5F90C302969296023F4F1
S2144053700063D9046C60AB81B7D5002AB5D12865E7
S214405380B3E7EA6B002A88DCD6E70123E9694046A2
S214405390A047431C024602D0AB89AC6A8CE7D8F8DB
S2144053A00030002BF8D01D2B01D0162B02D1C8F8A8
S2144053B00060C1E7AB8943F04003AB81BDE8F081B4
S2144053C00100402010B5044682B008B1836B53B14B
S2144053D0B1F90C0008B902B010BD204602B0BDE8D5
S2144053E01040FFF74BBF019100F080F80199EFE7BE
S2144053F0014900F0AFBB00BF6D6C40002DE9F04F97
S214405400354B4568C3630024074600F53B720423CA
S2144054100321C0F8E412C0F8E822C0F8E04283B0A6
S2144054202C606C60AC606C66EC812C616C61AC612D
S214405430AB81214605F15C000822FEF73DFEBE68C2
S214405440DFF898B0DFF898A0DFF89890DFF89880FB
S214405450C5F820B001230922C5F824A0C5F8289035
S214405460C5F82C80ED612146F381B28106F15C00DF
S21440547034607460B460746634617461B4610822E8
S2144054800193FEF719FEFD68F66112200222C6F867
S21440549020B0C6F824A0C6F82890C6F82C8021462E
S2144054A0A881EA812C606C60AC606C662C616C6193
S2144054B0AC6105F15C000822FEF7FEFD019BED6144
S2144054C0C5F820B0C5F824A0C5F82890C5F82C80AB
S2144054D0BB6303B0BDE8F08FF1534000D96840008D
S2144054E0FD6840003969400059694000836B03B14C
S2144054F07047FFF783BF00BF704700BF704700BFCD
S21440550038B5074D074C2C1BA41005D0013C55F868
S214405510043D9847002CF9D1BDE8384002F0EAB97E
S21440552004794000007940002DE9F04782B080467B
S2144055308946144600F03CFB012833D004F15C0356
S2144055404A4601A9404601F0DFFAB0F1FF3F8246E5
S21440555021D088B39DF80460002508E023685A1CD3
S21440556022601E700135554526D201AB5E5DA368AC
S214405570013B002BA360F1DAA769BB4231462246C5
S214405580404601DB0A2EE9D101F068FA431CE9D116
S21440559002B0BDE8F087A38943F04003A38102B080
S2144055A0BDE8F08709F1FF33FE2BC7D85FFA89F6CE
S2144055B082468DF80460CFE7484602B0BDE8F087E3
S2144055C0B2F90C3013F4005F0AD110B4546E43F4B1
S2144055D0005344F400545466938110BCFFF7A4BFB4
S2144055E0FFF7A2BFF8B5234F0C46064600F06EFF05
S2144055F0BB685D6825F00305291B01F6EF7121F4B1
S2144056007F6121F00F01A1F58054B4F5805F07DB80
S2144056100021304601F04EF9BB682B44984204D036
S214405620304600F055FF0020F8BD6142304601F09C
S21440563041F901300DD0104BBA6819682D1B45F062
S21440564001053046091B5560196000F041FF0120F6
S214405650F8BD0021304601F02DF9BA68831A0F2BA9
S214405660DEDD064C0449246843F00103001B53600A
S2144056700860D5E7880440207809402094084020F8
S214405680002945D02DE9F0410D46804600F01EFF2A
S21440569055F8047C6A4927F00103A5F10804E2188E
S2144056A08E685068B24220F0030062D0FE07506019
S2144056B00BD455F8087CE41B01F1080EA568754527
S2144056C03B446FD0E768EF60BD6015186D68ED0726
S2144056D042D543F001026260E350B3F5007F18D232
S2144056E0DB085A1C4D6851F83270A76001209B10A9
S2144056F000FA03F301EBC2001D430838E0604D603A
S21440570041F83240FC604046BDE8F04100F0E0BE63
S21440571070475A0A042A53D89A0902F139077F007B
S21440572002F1380501EB870051F827204449083834
S21440573090424DD0516821F003018B4202D29268CC
S2144057409042F7D1D068E060A2608460D460404662
S214405750BDE8F04100F0BCBE95683A4FBD420344F8
S2144057603FD0D068E86043F0010285606260E35055
S214405770B3E7FF07034407D455F8082CA41A13448C
S214405780A068E268C26090602F4A126843F0010049
S214405790934260608C60B6D32C4B40461968FFF746
S2144057A021FFB0E711184968C90744D49168D26808
S2144057B0CA60034443F0010091606060E350A2E792
S2144057C0142A17D802F15C077F0002F15B05A9E7AF
S2144057D0AA104B68012505FA02F213434B600246B5
S2144057E0B1E743F001024C610C61E560A560626080
S2144057F0E35088E7542A06D81A0B02F16F077F0059
S21440580002F16E058EE7B2F5AA7F06D8DA0B02F1F2
S21440581078077F0002F1770584E740F254508242D1
S21440582006D89A0C02F17D077F0002F17C0579E7E5
S214405830FE277E2576E743F001026260E35062E78A
S214405840880440209004402090084020740940205E
S2144058509368002B76D02DE9F04F8B8985B00C46A7
S21440586019070190164629D522693AB303F0020873
S2144058701FFA88F0356800282FD04FF00009B44F43
S214405880C846B246B84543464A4628BF3B460198B6
S214405890B8F1000F50D0E169666AB047002871DD64
S2144058A0DAF808301B1A8144C0EB0808CAF80830FA
S2144058B0002BE7D1002005B0BDE8F08F21460198C7
S2144058C0FFF768FC002840F03A81A389356803F06A
